S016000050726F796563746F5F46696E616C2E7372656370
S11300000C9434000C9446000C9446000C94460066
S11300100C9446000C9446000C9446000C94460044
S11300200C9446000C9446000C9446000C94460034
S11300300C9446000C9446000C9446000C94460024
S11300400C9446000C9446000C9446000C94460014
S11300500C9446000C9476000C9446000C944600D4
S11300600C9446000C94460011241FBECFEFD8E038
S1130070DEBFCDBF21E0A0E0B1E001C01D92A730FA
S1130080B207E1F70E94E1000C94CE010C94000049
S1130090ECE7F0E01082808180648083808180625C
S11300A08083808186608083EAE7F0E0108280812B
S11300B0836080838081886880838081806480837A
S11300C00895F894E1E6F0E080E8808384E080839A
S11300D060E470E080E00E94700160E470E080E021
S11300E00E94FE000E944800789408951F920F9287
S11300F00FB60F9211248F93EF93FF938091020117
S113010081110DC08091790080930601ECE7F0E045
S113011080818160808381E08093020136C0809178
S11301200201813081F48091790080930501ECE72C
S1130130F0E08081887F808380818560808382E095
S11301408093020122C080910201823081F4809167
S1130150790080930401ECE7F0E08081887F80835C
S113016080818460808383E0809302010EC080914B
S1130170790080930301ECE7F0E08081887F80833D
S113018080818660808310920201EAE7F0E080813A
S113019080648083FF91EF918F910F900FBE0F9039
S11301A01F9018959FE1899F90011124A1E8B0E860
S11301B00E94BF01880F892F881F990B9195885F32
S11301C008950E946100809106010E94D200C82F08
S11301D080930101809105010E94D2008093000167
S11301E08C2F0E94BB01809100010E94BD018FE70A
S11301F09EE30197F1F700C00000E5CF94B1986049
S113020094B99AB198609AB9E0EBF0E090819F704C
S11302109083813039F48081806C80838081806315
S1130220808308C0E0EBF0E0808180688083808177
S113023080628083E0EBF0E0808183608083E1EB87
S1130240F0E08081877F80838081887F8083603431
S1130250710549F150F468307105C9F060327105D7
S1130260E1F061307105B1F50CC0611581E07807EA
S113027031F1611584E0780741F16038710551F579
S113028018C0E1EBF0E080818160808323C0E1EB62
S1130290F0E08081826080831DC0E1EBF0E080812A
S11302A08360808317C0E1EBF0E080818460808309
S11302B011C0E1EBF0E08081856080830BC0E1EB4D
S11302C0F0E080818660808305C0E1EBF0E080810E
S11302D08760808388E08093B3008093B40008959E
S11302E09AB190649AB99AB190629AB994B59F7090
S11302F094BD813039F484B5806C84BD84B5806349
S113030084BD06C084B5806884BD84B5806284BD24
S113031084B5836084BD85B5877F85BD85B5887FB9
S113032085BD60347105C1F038F46130710561F048
S11303306830710569F01BC0611581E0780781F0B0
S11303406115744089F013C085B5816085BD0FC007
S113035085B5826085BD0BC085B5836085BD07C04A
S113036085B5846085BD03C085B5856085BD88E09D
S113037087BD88BD089587BD089588BD0895A29F4F
S1130380B001B39FC001A39F700D811D1124911D65
S1130390B29F700D811D1124911D0895F894FFCF13
S9030000FC
